:100000000C9434000C943E000C943E000C943E0082
:100010000C943E000C943E000C943E000C943E0068
:100020000C943E000C943E000C943E000C943E0058
:100030000C943E000C943E000C943E000C943E0048
:100040000C943E000C943E000C943E000C943E0038
:100050000C943E000C943E000C943E000C943E0028
:100060000C943E000C943E0011241FBECFEFD8E04C
:10007000DEBFCDBF0E9470000C947E000C94000087
:100080009093C5008093C40088E18093C1000895D7
:1000900087B117B881E280937C0087E880937A006B
:1000A0000895EAE7F0E0808180648083808186FDA6
:1000B000FDCF80917900089584B1886284B98CB5B0
:1000C00081658CBD08959F70906322989EBD0DB48C
:1000D00007FEFDCF8EBD0DB407FEFDCF229A089519
:1000E0000E9448000E945C0087E690E00E94400069
:1000F0000E94510090E00E946300FACFF894FFCF75
:00000001FF
