:100000000C9434000C943E000C943E000C943E0082
:100010000C943E000C943E000C943E000C943E0068
:100020000C943E000C943E000C943E000C943E0058
:100030000C943E000C943E000C943E000C943E0048
:100040000C943E000C943E000C943E000C943E0038
:100050000C943E000C943E000C943E000C943E0028
:100060000C943E000C943E0011241FBECFEFD8E04C
:10007000DEBFCDBF0E945F000C9467000C940000AF
:10008000569A84B5806484BD84B5826084BD85B58C
:10009000836085BD089587B117B881E280937C00A5
:1000A00087E880937A000895EAE7F0E08081806431
:1000B0008083808186FDFDCF8091790008950E9424
:1000C00040000E944B000E94540087BDFCCFF89472
:0200D000FFCF60
:00000001FF
